{
  "contractName": "DeployedAddresses",
  "abi": [
    {
      "constant": true,
      "inputs": [],
      "name": "Adoption",
      "outputs": [
        {
          "internalType": "address payable",
          "name": "",
          "type": "address"
        }
      ],
      "payable": false,
      "stateMutability": "pure",
      "type": "function"
    },
    {
      "constant": true,
      "inputs": [],
      "name": "Migrations",
      "outputs": [
        {
          "internalType": "address payable",
          "name": "",
          "type": "address"
        }
      ],
      "payable": false,
      "stateMutability": "pure",
      "type": "function"
    },
    {
      "constant": true,
      "inputs": [],
      "name": "TestAdoption",
      "outputs": [
        {
          "internalType": "address payable",
          "name": "",
          "type": "address"
        }
      ],
      "payable": false,
      "stateMutability": "pure",
      "type": "function"
    }
  ],
  "bytecode": "0x610178610026600b82828239805160001a60731461001957fe5b30600052607381538281f3fe730000000000000000000000000000000000000000301460806040526004361061004b5760003560e01c806326c61b1714610050578063a360b26f1461009a578063df64c8e5146100e4575b600080fd5b61005861012e565b604051808273ffffffffffffffffffffffffffffffffffffffff1673ffffffffffffffffffffffffffffffffffffffff16815260200191505060405180910390f35b6100a2610135565b604051808273ffffffffffffffffffffffffffffffffffffffff1673ffffffffffffffffffffffffffffffffffffffff16815260200191505060405180910390f35b6100ec61013c565b604051808273ffffffffffffffffffffffffffffffffffffffff1673ffffffffffffffffffffffffffffffffffffffff16815260200191505060405180910390f35b6000806000fd5b6000806000fd5b6000806000fdfea265627a7a7231582035128be5ec6c5fac3abaed3d09b0fd0f7d6a216fb45efec909d4cf62295e14a864736f6c63430005100032",
  "source": "//SPDX-License-Identifier: MIT\npragma solidity >= 0.4.15 < 0.9.0; \n\n library DeployedAddresses {\n  function Adoption() public pure returns (address payable) { revert(); }\n  function Migrations() public pure returns (address payable) { revert(); }\n  function TestAdoption() public pure returns (address payable) { revert(); }\n}",
  "sourcePath": "truffle/DeployedAddresses.sol",
  "compiler": {
    "name": "solc",
    "version": "0.5.16+commit.9c3226ce.Emscripten.clang"
  },
  "schemaVersion": "3.4.16",
  "updatedAt": "2024-10-12T19:43:19.897Z",
  "devdoc": {
    "methods": {}
  },
  "userdoc": {
    "methods": {}
  }
}